:020000020000FC
:040000000C9430002C
:10005C000C9410030FEF0DBF01E20EBFCBE0D2E00A
:10006C00002709930883CDE0D2E000270883C0E085
:10007C00D2E00027099309930993099309930993F3
:10008C000993099309930883CAE0D2E000270883F7
:10009C0060E071E080E090E0A0E00FEF00BB01B900
:1000AC00002701BB02B908E3DFD2EED207D308E385
:1000BC00DBD2EAD2FAD208E3D7D2E6D208E3D4D222
:1000CC00E3D208E0D1D2E0D201E0CED2DDD206E01C
:1000DC00CBD2DAD20CE0C8D2D7D201E0C5D2D4D27E
:1000EC0003E4C9D2D1D205E7C6D2CED202E7C3D23D
:1000FC00CBD202E7C0D2C8D205E6BDD2C5D20EE63D
:10010C00BAD2C2D204E7B7D2BFD200E2B4D2BCD2C8
:10011C0006E4B1D2B9D20CE6AED2B6D20FE6ABD26F
:10012C00B3D20FE6A8D2B0D202E7A5D2ADD20AE381
:10013C00A2D2AAD200E29FD2A7D2082F10E3010FBD
:10014C009AD2A2D200EC90D29FD20EE494D29CD23E
:10015C0005E691D299D208E78ED296D204E78BD2DB
:10016C0093D200E288D290D206E485D28DD20CE6EE
:10017C0082D28AD20FE67FD287D20FE67CD284D28B
:10018C0002E779D281D20AE376D27ED200E273D230
:10019C007BD2092F10E3010F6ED276D200EF0093C1
:1001AC000A0100E004BD02E005BD01E000936E0011
:1001BC007894A23014F00C942101F2E0E0E0B0E06D
:1001CC000AE010E032E02191213011F00C940E0184
:1001DC00713011F00C94FC00B01714F00C940E015B
:1001EC00B81774F4313011F40C940E01B11714F4E7
:1001FC000C940E01B81740F0303071F70C940E01CE
:10020C000B2F31E00C940E011B2F30E00C940E01DF
:10021C00B395BA3011F00C94E900303041F0313024
:10022C0011F00C942101901731F00C94EF019117FF
:10023C0011F00C945502C0910D02A23041F0A33084
:10024C0089F0A430D1F0A13019F10C94D901C1304E
:10025C0011F00C94D901A3E0CDE0D2E00027088383
:10026C000C94D901C33011F00C94D901A4E0CDE069
:10027C00D2E0002708830C94D901C13011F00C9402
:10028C00D901A0E0CDE0D2E0002708830C946701EF
:10029C00C23011F00C94D901CDE0D2E000270883D4
:1002AC00713011F00C945F018395891739F00C941F
:1002BC0074018A95891711F00C947401A2E00C94C6
:1002CC007401E0E0F2E000E0081721F003953196AC
:1002DC000C946A0110E010830C94D90101E0C4D194
:1002EC00D3D103E4C8D1D0D105E7C5D1CDD102E734
:1002FC00C2D1CAD102E7BFD1C7D105E6BCD1C4D1A6
:10030C000EE6B9D1C1D104E7B6D1BED100E2B3D16A
:10031C00BBD106E4B0D1B8D10CE6ADD1B5D10FE666
:10032C00AAD1B2D10FE6A7D1AFD102E7A4D1ACD1FB
:10033C000AE3A1D1A9D100E29ED1A6D1082F10E3E6
:10034C00010F99D1A1D100EC8FD19ED10EE493D1A4
:10035C009BD105E690D198D108E78DD195D104E7D2
:10036C008AD192D100E287D18FD106E484D18CD18D
:10037C000CE681D189D10FE67ED186D10FE67BD1F7
:10038C0083D102E778D180D10AE375D17DD100E227
:10039C0072D17AD1092F10E3010F6DD175D1613073
:1003AC0031F00C94BB02613011F00C94BB02109133
:1003BC000A0210930B01009109010F700F3011F01C
:1003CC000C94DF00CAE0D2E00027088360E00C94B4
:1003DC00DF00902F71E0A1E001E046D155D103E49C
:1003EC004AD152D105E747D14FD102E744D14CD184
:1003FC0002E741D149D105E63ED146D10EE63BD1CB
:10040C0043D104E738D140D100E235D13DD106E4E7
:10041C0032D13AD10CE62FD137D10FE62CD134D1D1
:10042C000FE629D131D102E726D12ED10AE323D10F
:10043C002BD100E220D128D1082F10E3010F1BD1C2
:10044C0023D100EC11D120D10EE415D11DD105E63C
:10045C0012D11AD108E70FD117D104E70CD114D15E
:10046C0000E209D111D106E406D10ED10CE603D17C
:10047C000BD10FE600D108D10FE6FDD005D102E774
:10048C00FAD002D10AE3F7D0FFD000E2F4D0FCD0CE
:10049C00092F10E3010FEFD0F7D00C942101912F0D
:1004AC0070E0A1E001E0E0D0EFD003E4E4D0ECD0C8
:1004BC0005E7E1D0E9D002E7DED0E6D002E7DBD0F9
:1004CC00E3D005E6D8D0E0D00EE6D5D0DDD004E7F9
:1004DC00D2D0DAD000E2CFD0D7D006E4CCD0D4D072
:1004EC000CE6C9D0D1D00FE6C6D0CED00FE6C3D023
:1004FC00CBD002E7C0D0C8D00AE3BDD0C5D000E253
:10050C00BAD0C2D0082F10E3010FB5D0BDD000EC8B
:10051C00ABD0BAD00EE4AFD0B7D005E6ACD0B4D0E7
:10052C0008E7A9D0B1D004E7A6D0AED000E2A3D0A2
:10053C00ABD006E4A0D0A8D00CE69DD0A5D00FE699
:10054C009AD0A2D00FE697D09FD002E794D09CD03F
:10055C000AE391D099D000E28ED096D0092F10E307
:10056C00010F89D091D00C9421015FEE33270C94AC
:10057C00C1020C94DF003430E1F350930B010FEF08
:10058C000C94C8020A95F1F7009109010F700F3015
:10059C00B1F01FEF1A95000000000000D9F7009190
:1005AC0009010F700F3059F041E02227243039F047
:1005BC00102F142349F02395440F0C94DC02550F93
:1005CC00539533950C94C1023330B1F02330B1F014
:1005DC00022F000F020F030F0395F2E0E0E0003052
:1005EC0021F00A9531960C94F50201E000835093AA
:1005FC000A0261E00C94DF000C94DF00313011F042
:10060C000C94DF00F2E0E0E001E0008350930A027A
:10061C0061E0CFCD0F930FB70F93AF938F939F9351
:10062C00CF93DF93A030B1F0C0910B02D0910C02AC
:10063C002196C4380EE1D00749F4CBE0D2E0002774
:10064C000883C0910D02C395C0930D02C0930B0299
:10065C00D0930C02DF91CF919F918F91AF910F911D
:10066C000FBF0F911895FFCF01BB1FD0169A1DD04D
:10067C0016981BD0089501BB179A17D0169A15D04F
:10068C00169813D0179808950F93002700BB01BB41
:10069C00159A0BD0169A09D00FB1169807FDF9CF01
:1006AC0015980FEF00BB0F9108958F939F939FE0C8
:1006BC008CE90197F1F79F918F910895F6DFF5DFA3
:0806CC00F4DFF3DFF2DF089513
:00000001FF
