:020000020000FC
:040000000C9430002C
:10005C000C94C9010FEF0DBF01E20EBF6FEF60BB37
:10006C0061B9662761BB62B908E3D1D1E0D1F9D19E
:10007C0008E3CDD1DCD1ECD108E3C9D1D8D108E368
:10008C00C6D1D5D108E0C3D1D2D101E0C0D1CFD1F6
:10009C0006E0BDD1CCD10CE0BAD1C9D100EF0093B0
:1000AC000A0102E0009369000DB301600DBBCDE0C5
:1000BC00D2E000270883C0E0D2E00027099309931F
:1000CC000993099309930993099309930993088355
:1000DC0060E071E080E090E0A0E0CAE0D2E00027B0
:1000EC0009930883CCE0D2E00027088300E004BD2C
:1000FC0002E005BD01E000936E00789403E48ED11C
:10010C0096D105E78BD193D102E788D190D102E744
:10011C0085D18DD105E682D18AD10EE67FD187D1EA
:10012C0004E77CD184D100E279D181D106E476D187
:10013C007ED10CE673D17BD10FE670D178D10FE66E
:10014C006DD175D102E76AD172D10AE367D16FD153
:10015C0000E264D16CD1082F10E3010F5FD167D19D
:10016C00C0910C02A13039F1A23031F0A33069F00A
:10017C00A430B1F00C940601C13001F0A3E0CCE046
:10018C00D2E0002708830C940601C33011F00C94C4
:10019C000601A4E0CCE0D2E0002708830C94060111
:1001AC00C13011F00C940601A0E0CCE0D2E00027A5
:1001BC0008830C94F900C23009F00AC1713009F0BF
:1001CC0008C08395CCE0D2E000270883891749F05A
:1001DC0017C08A95CCE0D2E000270883891709F074
:1001EC000FC0A2E00DC0E0E0F2E000E0081721F043
:1001FC00039531960C94FC0010E010830C940601CE
:10020C00A2300CF040C0F2E0E0E0B0E00AE010E018
:10021C0032E02191213011F00C943401713011F045
:10022C000C942201B01714F00C943401B81774F428
:10023C00313011F40C943401B11714F40C943401D2
:10024C00B81740F0303071F70C9434010B2F31E0BB
:10025C000C9434011B2F30E00C943401B395BA305C
:10026C0011F00C940F01303021F0313039F00C9436
:10027C004901912F70E0A1E00C944901902F71E09D
:10028C00A1E00C944901613019F05FEE332715C0E1
:10029C0010910D0210930B01009109010F700F309A
:1002AC0008E4BCD0C4D011F00C948400CDE0D2E0B2
:1002BC000027088360E00C948400343029F05093BC
:1002CC000B010FEF0C946B0119CF0A95F1F700910C
:1002DC0009010F700F30A9F01FEF1A9500000000F4
:1002EC00E1F7009109010F700F3059F041E022271E
:1002FC00243039F0102F142349F02395440F0C941B
:10030C007E01550F539533950C9463013330B9F03E
:10031C002330B1F0022F000F020F030F03950C9442
:10032C009701E0E0F2E0003021F031960A950C9450
:10033C00990101E0008350930D0261E0DFCEDECE27
:10034C00303019F03130B9F0D9CEC0E0D2E000270E
:10035C0009930993099309930993099309930993B1
:10036C0009930883E0E0F2E050930D0261E072E043
:10037C0001E00083C3CE01E0E0E0F2E000835093A3
:10038C000D0261E0BBCE04E549D051D0A03001F1A3
:10039C000F931F93FF93EF93CF93DF93BF93AF9381
:1003AC00C0910A02D0910B022196C4380EE1D007FD
:1003BC0051F4CAE0D2E0002709930883C0910C02E3
:1003CC00C395C0930C02C0930A02D0930B0200C0D9
:1003DC00AF91BF91CF91DF91EF91FF911F910F9151
:1003EC0018950F930FB70F93A33011F00C940902CB
:1003FC00A4E0CCE0D2E000270883CAE0D2E00027DA
:10040C000993088300C00F910FBF0F91189501BB82
:10041C001FD0169A1DD016981BD0089501BB179AA1
:10042C0017D0169A15D0169813D0179808950F93C5
:10043C00002700BB01BB159A0BD0169A09D00FB13F
:10044C00169807FDF9CF15980FEF00BB0F91089583
:10045C008F939F939FE08CE90197F1F79F918F9178
:0E046C000895F6DFF5DFF4DFF3DFF2DF089529
:00000001FF
