:020000020000FC
:080000000C9430000C9446043E
:10005C000C9419040FEF0DBF01E20EBFCBE0D2E000
:10006C00002709930883CDE0D2E000270883C0E085
:10007C00D2E00027099309930993099309930993F3
:10008C000993099309930883CAE0D2E000270883F7
:10009C0060E071E0FF24EE2488270FEF07B900BB66
:1000AC0001B9002701BB02B901E000930E0208B9A7
:1000BC0008E3FCD30BD424D408E3F8D307D417D427
:1000CC0008E3F4D303D408E3F1D300D408E0EED36F
:1000DC00FDD301E0EBD3FAD306E0E8D3F7D30CE081
:1000EC00E5D3F4D301E0E2D3F1D303E4E6D3EED3CA
:1000FC0005E7E3D3EBD302E7E0D3E8D302E7DDD3A4
:10010C00E5D305E6DAD3E2D30EE6D7D3DFD304E7A3
:10011C00D4D3DCD300E2D1D3D9D306E4CED3D6D317
:10012C000CE6CBD3D3D30FE6C8D3D0D30FE6C5D3CD
:10013C00CDD302E7C2D3CAD30AE3BFD3C7D300E2FD
:10014C00BCD3C4D30F2D10E3010FB7D3BFD300EC36
:10015C00ADD3BCD30EE4B1D3B9D305E6AED3B6D38D
:10016C0008E7ABD3B3D304E7A8D3B0D300E2A5D34D
:10017C00ADD306E4A2D3AAD30CE69FD3A7D30FE644
:10018C009CD3A4D30FE699D3A1D302E796D39ED3E5
:10019C000AE393D39BD300E290D398D30E2D10E3B4
:1001AC00010F8BD393D300EF00930A0102E000936D
:1001BC0069000DB301600DBB00E004BD02E005BD9C
:1001CC0001E000936E007894723021F0823054F08C
:1001DC000C94360100E0F01611F00C94D40282E07D
:1001EC000C943601F2E0E0E0B0E00AE010E032E01E
:1001FC002191213011F00C942301713011F00C94E9
:10020C001101B01714F00C942301BF1574F43130A4
:10021C0011F40C942301B11714F40C942301BF15A1
:10022C0040F0303071F70C9423010B2F31E00C941B
:10023C0023011B2F30E00C942301B395BA3011F03D
:10024C000C94FE00303041F0313011F00C9436013A
:10025C00E01631F00C940802E11611F00C946E02C9
:10026C00C0910D02823041F0833089F08430D1F09E
:10027C00813039F10C94EE01C13011F00C94EE0187
:10028C0083E0CDE0D2E0002708830C94EE01C3306C
:10029C0011F00C94EE0184E0CDE0D2E0002708834D
:1002AC000C94EE01C13011F00C94EE0180E0CDE025
:1002BC00D2E000270883723011F00C9480010C946A
:1002CC00EE01C23011F00C94EE01CDE0D2E000272B
:1002DC000883713011F00C947801F394FE1439F00A
:1002EC000C948D01FA94FE1411F00C948D0182E0A3
:1002FC000C948D01E0E0F2E000E00F1521F0039585
:10030C0031960C94830110E010830C94EE0101E003
:10031C00CDD2DCD203E4D1D2D9D205E7CED2D6D21B
:10032C0002E7CBD2D3D202E7C8D2D0D205E6C5D2EF
:10033C00CDD20EE6C2D2CAD204E7BFD2C7D200E2F7
:10034C00BCD2C4D206E4B9D2C1D20CE6B6D2BED26B
:10035C000FE6B3D2BBD20FE6B0D2B8D202E7ADD221
:10036C00B5D20AE3AAD2B2D200E2A7D2AFD20F2DF5
:10037C0010E3010FA2D2AAD200EC98D2A7D20EE4BD
:10038C009CD2A4D205E699D2A1D208E796D29ED2ED
:10039C0004E793D29BD200E290D298D206E48DD29D
:1003AC0095D20CE68AD292D20FE687D28FD20FE684
:1003BC0084D28CD202E781D289D20AE37ED286D251
:1003CC0000E27BD283D20E2D10E3010F76D27ED2C7
:1003DC00723021F0613021F00C949B030C94D40208
:1003EC0010910A0210930B01009109010F700F304C
:1003FC0011F00C94EA00CAE0D2E00027088360E018
:10040C000C94EA00E02E71E081E001E04FD25ED264
:10041C0003E453D25BD205E750D258D202E74DD257
:10042C0055D202E74AD252D205E647D24FD20EE657
:10043C0044D24CD204E741D249D200E23ED246D259
:10044C0006E43BD243D20CE638D240D20FE635D28A
:10045C003DD20FE632D23AD202E72FD237D20AE39C
:10046C002CD234D200E229D231D20F2D10E3010F5D
:10047C0024D22CD200EC1AD229D20EE41ED226D2CF
:10048C0005E61BD223D208E718D220D204E715D2F6
:10049C001DD200E212D21AD206E40FD217D20CE609
:1004AC000CD214D20FE609D211D20FE606D20ED21C
:1004BC0002E703D20BD20AE300D208D200E2FDD14C
:1004CC0005D20E2D10E3010FF8D100D20C94360199
:1004DC00E12E70E081E001E0E9D1F8D103E4EDD147
:1004EC00F5D105E7EAD1F2D102E7E7D1EFD102E786
:1004FC00E4D1ECD105E6E1D1E9D10EE6DED1E6D1CD
:10050C0004E7DBD1E3D100E2D8D1E0D106E4D5D1C8
:10051C00DDD10CE6D2D1DAD10FE6CFD1D7D10FE6AF
:10052C00CCD1D4D102E7C9D1D1D10AE3C6D1CED135
:10053C0000E2C3D1CBD10F2D10E3010FBED1C6D138
:10054C0000ECB4D1C3D10EE4B8D1C0D105E6B5D11D
:10055C00BDD108E7B2D1BAD104E7AFD1B7D100E22F
:10056C00ACD1B4D106E4A9D1B1D10CE6A6D1AED1AF
:10057C000FE6A3D1ABD10FE6A0D1A8D102E79DD154
:10058C00A5D10AE39AD1A2D100E297D19FD10E2D29
:10059C0010E3010F92D19AD10C94360100E0F016C1
:1005AC0041F082301CF084E00C94360181E00C9414
:1005BC003601803011F00C94360101E077D186D1F0
:1005CC0005E47BD183D10DE678D180D105E675D1D8
:1005DC007DD102E772D17AD107E66FD177D105E6EA
:1005EC006CD174D10EE669D171D103E666D16ED1AE
:1005FC0009E763D16BD100EC59D168D103E45DD12B
:10060C0065D101E65AD162D10CE657D15FD10CE627
:10061C0054D15CD100E251D159D100E34ED156D125
:10062C0000E34BD153D100E348D150D110910A02D1
:10063C0010930B01009109010F700F30B9F348E0D2
:10064C00102F142311F00C941C0371E0FF24EE24E2
:10065C008827CBE0D2E0002709930883CDE0D2E0D5
:10066C000027088301E022D131D103E426D12ED119
:10067C0005E723D12BD102E720D128D102E71DD1E8
:10068C0025D105E61AD122D10EE617D11FD104E7E8
:10069C0014D11CD100E211D119D106E40ED116D11E
:1006AC000CE60BD113D10FE608D110D10FE605D112
:1006BC000DD102E702D10AD10AE3FFD007D100E243
:1006CC00FCD004D10F2D10E3010FF7D0FFD000ECBC
:1006DC00EDD0FCD00EE4F1D0F9D005E6EED0F6D09A
:1006EC0008E7EBD0F3D004E7E8D0F0D000E2E5D097
:1006FC00EDD006E4E2D0EAD00CE6DFD0E7D00FE68E
:10070C00DCD0E4D00FE6D9D0E1D002E7D6D0DED0F1
:10071C000AE3D3D0DBD000E2D0D0D8D00E2D10E33A
:10072C00010FCBD0D3D00C94F6015FEE33270C9491
:10073C00A1030C94EA003430E1F350930B010FEF5A
:10074C000A95F1F7009109010F700F30B1F01FEF0E
:10075C001A95000000000000D9F7009109010F70F4
:10076C000F3059F041E02227243039F0102F142398
:10077C0049F02395440F0C94BA03550F53953395B8
:10078C000C94A1033330B1F02330B1F0022F000FE1
:10079C00020F030F0395F2E0E0E0003021F00A9520
:1007AC0031960C94D30301E0008350930A0261E06C
:1007BC000C94EA000C94EA00303021F0313059F1FD
:1007CC000C94EA00EE2472E061E0C0E0D2E0002775
:1007DC00099309930993099309930993099309932D
:1007EC0009930883CDE0D2E00027088350930A02D6
:1007FC00152F0AE262D06AD00C94040410930B01FA
:10080C0000000000009109010F700F3011F00C94E2
:10081C0004040C94F000F2E0E0E001E0008350935B
:10082C000A0261E0D1CC0F930FB70F938F938F9384
:10083C009F93CF93DF938030D1F0C0910B02D09176
:10084C000C022196C4380EE1D00711F00C94390437
:10085C00CBE0D2E0002709930883C0910D02C39529
:10086C00C0930D0204C0C0930B02D0930C02DF9115
:10087C00CF919F918F918F910F910FBF0F911895E1
:10088C000F930FB70F93833011F00C945704CBE0F8
:10089C00D2E0002709930883CDE0D2E0002708833B
:1008AC0084E00F910FBF0F911895FFCF01BB1FD0A4
:1008BC00169A1DD016981BD0089501BB179A17D005
:1008CC00169A15D0169813D0179808950F930027E1
:1008DC0000BB01BB159A0BD0169A09D00FB1169814
:1008EC0007FDF9CF15980FEF00BB0F9108958F936B
:1008FC009F939FE08CE90197F1F79F918F91089559
:0C090C00F6DFF5DFF4DFF3DFF2DF089523
:00000001FF
