:020000020000FC
:040004000C9427022F
:10005C000C94AD0101BB1FD0169A1DD016981BD065
:10006C00089501BB179A17D0169A15D0169813D06D
:10007C00179808950F93002700BB01BB159A0BD05E
:10008C00169A09D00FB1169807FDF9CF15980FEFF6
:10009C0000BB0F9108958F939F939FE08CE901977C
:1000AC00F1F79F918F910895F6DFF5DFF4DFF3DF21
:1000BC00F2DF08950FEF0DBF01E20EBF1FEF10BB73
:1000CC0011B9112711BB12B908E3C4DFD3DFECDF80
:1000DC0008E3C0DFCFDFDFDF08E3BCDFCBDF08E303
:1000EC00B9DFC8DF08E0B6DFC5DF01E0B3DFC2DF90
:1000FC0006E0B0DFBFDF0CE0ADDFBCDFCAE0D2E072
:10010C00002709930883CCE0D2E00027088300E0A5
:10011C00B4BD02E0B5BD01E000936E0002E00093B7
:10012C0069000DB301600DBB00EF00930A01CDE037
:10013C00D2E000270883C0E0D2E00027099309939E
:10014C0009930993099309930993099309930883D4
:10015C0060E071E080E090E0A0E0789401E07ADF6C
:10016C0089DF03E47EDF86DF05E77BDF83DF02E7E1
:10017C0078DF80DF02E775DF7DDF05E672DF7ADF8F
:10018C000EE66FDF77DF04E76CDF74DF00E269DF18
:10019C0071DF06E466DF6EDF0CE663DF6BDF0FE614
:1001AC0060DF68DF0FE65DDF65DF02E75ADF62DFE5
:1001BC000AE357DF5FDF00E254DF5CDF082F10E358
:1001CC00010F4FDF57DF092F10E3010F4ADF52DF1A
:1001DC00A23008F040C0F2E0E0E0B0E00AE010E04D
:1001EC0032E02191213011F00C941C01713011F08E
:1001FC000C940A01B01714F00C941C01B81774F489
:10020C00313011F40C941C01B11714F40C941C0132
:10021C00B81740F0303071F70C941C010B2F31E003
:10022C000C941C011B2F30E00C941C01B395BA30BC
:10023C0011F00C94F700303021F0313039F00C947F
:10024C003101912F70E0A1E00C943101902F71E0FD
:10025C00A1E00C943101613019F05FEE332712C02C
:10026C0010910D0210930B01009109010F700F30CA
:10027C0011F00C94B400CDE0D2E00027088360E0CC
:10028C000C94B400343029F050930B010FEF0C9404
:10029C00500164CF0A95F1F7009109010F700F30EE
:1002AC00A9F01FEF1A9500000000E1F70091090179
:1002BC000F700F3059F041E02227243039F0102F05
:1002CC00142349F02395440F0C946301550F539557
:1002DC0033950C9448013330B9F02330B1F0022F30
:1002EC00000F020F030F03950C947C01E0E0F2E089
:1002FC00003021F031960A950C947E0101E00083C8
:10030C0050930D0261E02ACF29CF303019F03130F3
:10031C00B1F024CFC0E0D2E00027099309930993F0
:10032C000993099309930993099309930883E0E0CE
:10033C00F2E050930D0261E001E000830FCF01E089
:10034C00E0E0F2E0008350930D0261E007CF0FB7BD
:10035C000F931F93FF93EF93DF93CF939F938F9301
:10036C00A030E9F080910A0290910B02019684383A
:10037C000EE19007B1F4CAE0D2E00027099308839C
:10038C0080910C02839580930C02A23079F0A330FB
:10039C00B1F0A430E9F0A13029F10C941D020C94B9
:1003AC001D0280930A0290930B0241C0813009F028
:1003BC003EC0A3E0CCE0D2E00027088338C08330F5
:1003CC0009F035C0A4E0CCE0D2E0002708832FC0B0
:1003DC00813009F02CC0A0E0CCE0D2E000270883EB
:1003EC000C941002823009F022C0713009F008C060
:1003FC008395CCE0D2E000270883891749F017C019
:10040C008A95CCE0D2E000270883891709F00FC049
:10041C00A2E00DC0E0E0F2E000E0081721F0039547
:10042C0031960C94130210E010830C941D028F91E2
:10043C009F91CF91DF91EF91FF911F910F910FBF82
:10044C0018950F930FB70F93A33011F00C94300243
:0C045C00A4E000C00F910FBF0F91189595
:00000001FF
