:020000020000FC
:080000000C9430000C943D0447
:10005C000C9414040FEF0DBF01E20EBFCBE0D2E005
:10006C00002709930883CDE0D2E000270883C0E085
:10007C00D2E00027099309930993099309930993F3
:10008C000993099309930883CAE0D2E000270883F7
:10009C0060E071E0FF24EE2488270FEF00BB01B96C
:1000AC00002701BB02B908E3F8D307D420D408E336
:1000BC00F4D303D413D408E3F0D3FFD308E3EDD384
:1000CC00FCD308E0EAD3F9D301E0E7D3F6D306E09A
:1000DC00E4D3F3D30CE0E1D3F0D301E0DED3EDD3E2
:1000EC0003E4E2D3EAD305E7DFD3E7D302E7DCD3BB
:1000FC00E4D302E7D9D3E1D305E6D6D3DED30EE6BB
:10010C00D3D3DBD304E7D0D3D8D300E2CDD3D5D32C
:10011C0006E4CAD3D2D30CE6C7D3CFD30FE6C4D3ED
:10012C00CCD30FE6C1D3C9D302E7BED3C6D30AE3FF
:10013C00BBD3C3D300E2B8D3C0D30F2D10E3010F50
:10014C00B3D3BBD300ECA9D3B8D30EE4ADD3B5D3A2
:10015C0005E6AAD3B2D308E7A7D3AFD304E7A4D359
:10016C00ACD300E2A1D3A9D306E49ED3A6D30CE66C
:10017C009BD3A3D30FE698D3A0D30FE695D39DD3EF
:10018C0002E792D39AD30AE38FD397D300E28CD3AE
:10019C0094D30E2D10E3010F87D38FD300EF009370
:1001AC000A0102E0009369000DB301600DBB00E091
:1001BC0004BD02E005BD01E000936E00789472303E
:1001CC0021F0823054F00C94310100E0F01611F063
:1001DC000C94CF0282E00C943101F2E0E0E0B0E04C
:1001EC000AE010E032E02191213011F00C941E0154
:1001FC00713011F00C940C01B01714F00C941E011A
:10020C00BF1574F4313011F40C941E01B11714F4B1
:10021C000C941E01BF1540F0303071F70C941E0188
:10022C000B2F31E00C941E011B2F30E00C941E019F
:10023C00B395BA3011F00C94F900303041F03130F4
:10024C0011F00C943101E01631F00C940302E1161C
:10025C0011F00C946902C0910D02823041F0833090
:10026C0089F08430D1F0813039F10C94E901C1303E
:10027C0011F00C94E90183E0CDE0D2E00027088373
:10028C000C94E901C33011F00C94E90184E0CDE049
:10029C00D2E0002708830C94E901C13011F00C94D2
:1002AC00E90180E0CDE0D2E000270883723011F044
:1002BC000C947B010C94E901C23011F00C94E9010F
:1002CC00CDE0D2E000270883713011F00C9473015B
:1002DC00F394FE1439F00C948801FA94FE1411F086
:1002EC000C94880182E00C948801E0E0F2E000E0DC
:1002FC000F1521F0039531960C947E0110E01083BC
:10030C000C94E90101E0C9D2D8D203E4CDD2D5D204
:10031C0005E7CAD2D2D202E7C7D2CFD202E7C4D203
:10032C00CCD205E6C1D2C9D20EE6BED2C6D204E703
:10033C00BBD2C3D200E2B8D2C0D206E4B5D2BDD291
:10034C000CE6B2D2BAD20FE6AFD2B7D20FE6ACD22D
:10035C00B4D202E7A9D2B1D20AE3A6D2AED200E25D
:10036C00A3D2ABD20F2D10E3010F9ED2A6D200EC7C
:10037C0094D2A3D20EE498D2A0D205E695D29DD207
:10038C0008E792D29AD204E78FD297D200E28CD2AD
:10039C0094D206E489D291D20CE686D28ED20FE6A4
:1003AC0083D28BD20FE680D288D202E77DD285D25F
:1003BC000AE37AD282D200E277D27FD20E2D10E3FA
:1003CC00010F72D27AD2723021F0613021F00C948C
:1003DC0096030C94CF0210910A0210930B0100911A
:1003EC0009010F700F3011F00C94E500CAE0D2E057
:1003FC000027088360E00C94E500E02E71E081E0BA
:10040C0001E04BD25AD203E44FD257D205E74CD27B
:10041C0054D202E749D251D202E746D24ED205E677
:10042C0043D24BD20EE640D248D204E73DD245D25D
:10043C0000E23AD242D206E437D23FD20CE634D2B2
:10044C003CD20FE631D239D20FE62ED236D202E7A9
:10045C002BD233D20AE328D230D200E225D22DD2CD
:10046C000F2D10E3010F20D228D200EC16D225D28A
:10047C000EE41AD222D205E617D21FD208E714D204
:10048C001CD204E711D219D200E20ED216D206E425
:10049C000BD213D20CE608D210D20FE605D20DD235
:1004AC000FE602D20AD202E7FFD107D20AE3FCD14F
:1004BC0004D200E2F9D101D20E2D10E3010FF4D1D8
:1004CC00FCD10C943101E12E70E081E001E0E5D12A
:1004DC00F4D103E4E9D1F1D105E7E6D1EED102E79D
:1004EC00E3D1EBD102E7E0D1E8D105E6DDD1E5D1EE
:1004FC000EE6DAD1E2D104E7D7D1DFD100E2D4D1D4
:10050C00DCD106E4D1D1D9D10CE6CED1D6D10FE6CF
:10051C00CBD1D3D10FE6C8D1D0D102E7C5D1CDD143
:10052C000AE3C2D1CAD100E2BFD1C7D10F2D10E36B
:10053C00010FBAD1C2D100ECB0D1BFD10EE4B4D10D
:10054C00BCD105E6B1D1B9D108E7AED1B6D104E73B
:10055C00ABD1B3D100E2A8D1B0D106E4A5D1ADD1D5
:10056C000CE6A2D1AAD10FE69FD1A7D10FE69CD160
:10057C00A4D102E799D1A1D10AE396D19ED100E290
:10058C0093D19BD10E2D10E3010F8ED196D10C94EB
:10059C00310100E0F01641F082301CF084E00C9444
:1005AC00310181E00C943101803011F00C94310157
:1005BC0001E073D182D105E477D17FD10DE674D1FE
:1005CC007CD105E671D179D102E76ED176D107E6FF
:1005DC006BD173D105E668D170D10EE665D16DD1C2
:1005EC0003E662D16AD109E75FD167D100EC55D13E
:1005FC0064D103E459D161D101E656D15ED10CE648
:10060C0053D15BD10CE650D158D100E24DD155D12C
:10061C0000E34AD152D100E347D14FD100E344D19A
:10062C004CD110910A0210930B01009109010F702B
:10063C000F30B9F348E0102F142311F00C9417036A
:10064C0071E0FF24EE248827CBE0D2E00027099349
:10065C000883CDE0D2E00027088301E01ED12DD124
:10066C0003E422D12AD105E71FD127D102E71CD1FF
:10067C0024D102E719D121D105E616D11ED10EE6FF
:10068C0013D11BD104E710D118D100E20DD115D133
:10069C0006E40AD112D10CE607D10FD10FE604D132
:1006AC000CD10FE601D109D102E7FED006D10AE345
:1006BC00FBD003D100E2F8D000D10F2D10E3010FD5
:1006CC00F3D0FBD000ECE9D0F8D00EE4EDD0F5D0AF
:1006DC0005E6EAD0F2D008E7E7D0EFD004E7E4D0A3
:1006EC00ECD000E2E1D0E9D006E4DED0E6D00CE6B6
:1006FC00DBD0E3D00FE6D8D0E0D00FE6D5D0DDD0FC
:10070C0002E7D2D0DAD00AE3CFD0D7D000E2CCD0F7
:10071C00D4D00E2D10E3010FC7D0CFD00C94F10123
:10072C005FEE33270C949C030C94E5003430E1F31A
:10073C0050930B010FEF0A95F1F7009109010F701F
:10074C000F30B1F01FEF1A95000000000000D9F730
:10075C00009109010F700F3059F041E0222724302D
:10076C0039F0102F142349F02395440F0C94B50342
:10077C00550F539533950C949C033330B1F02330C3
:10078C00B1F0022F000F020F030F0395F2E0E0E02F
:10079C00003021F00A9531960C94CE0301E00083D1
:1007AC0050930A0261E00C94E5000C94E5003030A3
:1007BC0021F0313059F10C94E500EE2472E061E047
:1007CC00C0E0D2E000270993099309930993099398
:1007DC0009930993099309930883CDE0D2E000278C
:1007EC00088350930A02152F0AE25ED066D00C944F
:1007FC00FF0310930B0100000000009109010F7022
:10080C000F3011F00C94FF030C94EB00F2E0E0E0DD
:10081C0001E0008350930A0261E0D1CC0F930FB733
:10082C000F938F938F939F93CF93DF938030B1F07F
:10083C00C0910B02D0910C022196C4380EE1D00766
:10084C0049F4CBE0D2E000270883C0910D02C39598
:10085C00C0930D02C0930B02D0930C02DF91CF9189
:10086C009F918F918F910F910FBF0F9118950F93AF
:10087C000FB70F93833011F00C944E04CBE0D2E001
:10088C00002709930883CDE0D2E00027088384E099
:10089C000F910FBF0F911895FFCF01BB1FD0169A68
:1008AC001DD016981BD0089501BB179A17D0169A15
:1008BC0015D0169813D0179808950F93002700BBE6
:1008CC0001BB159A0BD0169A09D00FB1169807FDDB
:1008DC00F9CF15980FEF00BB0F9108958F939F934D
:1008EC009FE08CE90197F1F79F918F910895F6DFC6
:0A08FC00F5DFF4DFF3DFF2DF08950B
:00000001FF
