:020000020000FC
:0C0000000C9430000C94BB040C94D5044C
:10005C000C945F040FEF0DBF01E20EBFCBE0D2E0BA
:10006C00002709930883CDE0D2E000270883C0E085
:10007C00D2E00027099309930993099309930993F3
:10008C000993099309930883CAE0D2E000270883F7
:10009C0060E071E0FF24EE2488270FEF07B900BB66
:1000AC0001B9002701BB02B90FEF00930E0208B98A
:1000BC0008E390D49FD4B8D408E38CD49BD4ABD4AD
:1000CC0008E388D497D408E385D494D408E082D488
:1000DC0091D401E07FD48ED406E07CD48BD40CE098
:1000EC0079D488D401E076D485D403E47AD482D44C
:1000FC0005E777D47FD402E774D47CD402E771D4BB
:10010C0079D405E66ED476D40EE66BD473D404E7BA
:10011C0068D470D400E265D46DD406E462D46AD499
:10012C000CE65FD467D40FE65CD464D40FE659D4E4
:10013C0061D402E756D45ED40AE353D45BD400E214
:10014C0050D458D40F2D10E3010F4BD453D400ECE2
:10015C0041D450D40EE445D44DD405E642D44AD40F
:10016C0008E73FD447D404E73CD444D400E239D464
:10017C0041D406E436D43ED40CE633D43BD40FE65B
:10018C0030D438D40FE62DD435D402E72AD432D467
:10019C000AE327D42FD400E224D42CD40E2D10E360
:1001AC00010F1FD427D400EF00930A0102E0009343
:1001BC0069000DB301600DBB00E004BD02E005BD9C
:1001CC0001E000936E007894723021F0823054F08C
:1001DC000C94340100E0F01611F00C94080382E04A
:1001EC000C943401F2E0E0E0B0E00AE010E032E020
:1001FC002191213011F00C942301713011F00C94E9
:10020C001101B01714F00C942301BF1574F43130A4
:10021C0011F40C942301B11714F40C942301BF15A1
:10022C0040F0303071F70C9423010B2F31E00C941B
:10023C0023011B2F30E00C942301B395BA3011F03D
:10024C000C94FE00303031F0313011F00C9434014C
:10025C000C942202E11611F00C949702C0910D023D
:10026C00823041F08330C1F0843031F18130D1F1F2
:10027C000C940802C13011F00C94080283E0CEE01B
:10028C00D2E00027088303EC00930E02CDE0D2E00D
:10029C00002708830C940802C33011F00C94080258
:1002AC0084E0CEE0D2E00027088303ECCDE0D2E07E
:1002BC00002708830C940802C13011F00C9408023A
:1002CC0080E0CDE0D2E000270883CEE0D2E000272A
:1002DC00088300E000930E02723011F00C949A0126
:1002EC000C940802C23011F00C940802CDE0D2E05C
:1002FC0000270883FE1471F0713011F00C948B01FF
:10030C00F394FE1439F00C94A701FA94FE1411F036
:10031C000C94A70182E0CEE0D2E0002708830FEF17
:10032C0000930E020C94A701E0E0F2E000E00F1540
:10033C0021F0039531960C949D0110E010830C94E0
:10034C00080201E047D356D303E44BD353D305E75C
:10035C0048D350D302E745D34DD302E742D34AD317
:10036C0005E63FD347D30EE63CD344D304E739D359
:10037C0041D300E236D33ED306E433D33BD30CE671
:10038C0030D338D30FE62DD335D30FE62AD332D35F
:10039C0002E727D32FD30AE324D32CD300E221D3B3
:1003AC0029D30F2D10E3010F1CD324D300EC12D34F
:1003BC0021D30EE416D31ED305E613D31BD308E7C3
:1003CC0010D318D304E70DD315D300E20AD312D3FC
:1003DC0006E407D30FD30CE604D30CD30FE601D3FA
:1003EC0009D30FE6FED206D302E7FBD203D30AE30E
:1003FC00F8D200D300E2F5D2FDD20E2D10E3010F9E
:10040C00F0D2F8D2723021F0613021F00C94E1037B
:10041C000C94080310910A0210930B01009109012E
:10042C000F700F3011F00C94EA00CAE0D2E00027F4
:10043C00088360E00C94EA00803011F00C942D02DB
:10044C00CEE0D2E00027088301E000930E020E15E7
:10045C0011F40C949302E02E01E0BCD2CBD203E455
:10046C00C0D2C8D205E7BDD2C5D202E7BAD2C2D239
:10047C0002E7B7D2BFD205E6B4D2BCD20EE6B1D2F7
:10048C00B9D204E7AED2B6D200E2ABD2B3D206E414
:10049C00A8D2B0D20CE6A5D2ADD20FE6A2D2AAD287
:1004AC000FE69FD2A7D202E79CD2A4D20AE399D23C
:1004BC00A1D200E296D29ED20F2D10E3010F91D261
:1004CC0099D200EC87D296D20EE48BD293D205E669
:1004DC0088D290D208E785D28DD204E782D28AD214
:1004EC0000E27FD287D206E47CD284D20CE679D2A9
:1004FC0081D20FE676D27ED20FE673D27BD202E7A0
:10050C0070D278D20AE36DD275D200E26AD272D27E
:10051C000E2D10E3010F65D26DD271E081E00C94C9
:10052C003401E12E803011F00C94A302CEE0D2E025
:10053C000027088300E100930E0270E081E001E0E7
:10054C0049D258D203E44DD255D205E74AD252D201
:10055C0002E747D24FD202E744D24CD205E641D251
:10056C0049D20EE63ED246D204E73BD243D200E259
:10057C0038D240D206E435D23DD20CE632D23AD251
:10058C000FE62FD237D20FE62CD234D202E729D283
:10059C0031D20AE326D22ED200E223D22BD20F2D57
:1005AC0010E3010F1ED226D200EC14D223D20EE49B
:1005BC0018D220D205E615D21DD208E712D21AD2D3
:1005CC0004E70FD217D200E20CD214D206E409D2FF
:1005DC0011D20CE606D20ED20FE603D20BD20FE6E6
:1005EC0000D208D202E7FDD105D20AE3FAD102D239
:1005FC0000E2F7D1FFD10E2D10E3010FF2D1FAD1A9
:10060C000C94340100E0F01641F082301CF084E0D0
:10061C000C94340181E00C943401803011F00C9472
:10062C00340101E0D7D1E6D100E2DBD1E3D100E225
:10063C00D8D1E0D100E2D5D1DDD105E4D2D1DAD1E7
:10064C000DE6CFD1D7D105E6CCD1D4D102E7C9D1B3
:10065C00D1D107E6C6D1CED105E6C3D1CBD10EE6BA
:10066C00C0D1C8D103E6BDD1C5D109E7BAD1C2D139
:10067C0000ECB0D1BFD100E2B4D1BCD100E2B1D119
:10068C00B9D100E2AED1B6D103E4ABD1B3D101E61E
:10069C00A8D1B0D10CE6A5D1ADD10CE6A2D1AAD18E
:1006AC0000E29FD1A7D100E39CD1A4D100E399D162
:1006BC00A1D100E396D19ED110910A0210930B01A7
:1006CC00009109010F700F30B9F348E0102F14237B
:1006DC0011F00C94620371E0FF24EE248827CBE028
:1006EC00D2E0002709930883CDE0D2E000270883ED
:1006FC0001E070D17FD103E474D17CD105E771D1D5
:10070C0079D102E76ED176D102E76BD173D105E6D0
:10071C0068D170D10EE665D16DD104E762D16AD192
:10072C0000E25FD167D106E45CD164D10CE659D10B
:10073C0061D10FE656D15ED10FE653D15BD102E702
:10074C0050D158D10AE34DD155D100E24AD152D102
:10075C000F2D10E3010F45D14DD100EC3BD14AD107
:10076C000EE43FD147D105E63CD144D108E739D15D
:10077C0041D104E736D13ED100E233D13BD106E47E
:10078C0030D138D10CE62DD135D10FE62AD132D16A
:10079C000FE627D12FD102E724D12CD10AE321D1A6
:1007AC0029D100E21ED126D10E2D10E3010F19D153
:1007BC0021D10C9410025FEE33270C94E7030C94B8
:1007CC00EA003430E1F350930B010FEF0A95F1F787
:1007DC00009109010F700F30B1F01FEF1A95000056
:1007EC0000000000D9F7009109010F700F3059F08B
:1007FC0041E02227243039F0102F142349F023959F
:10080C00440F0C940004550F539533950C94E70347
:10081C003330B1F02330B1F0022F000F020F030F71
:10082C000395F2E0E0E0003021F00A9531960C944B
:10083C00190401E0008350930A0261E00C94EA0071
:10084C000C94EA00303021F0313059F10C94EA006C
:10085C00EE2472E061E0C0E0D2E000270993099336
:10086C0009930993099309930993099309930883AD
:10087C00CDE0D2E00027088350930A02152F0AE23C
:10088C00B0D0B8D00C944A0410930B0100000000B7
:10089C00009109010F700F3011F00C944A040C9464
:1008AC00F000F2E0E0E001E0008350930A0261E026
:1008BC008BCC0F930FB70F938F938F939F93CF93F3
:1008CC00DF93803059F0C0910B02D0910C0221962D
:1008DC00C4380EE1D00721F00C94AE040C94B20491
:1008EC0000910E02813031F08230A1F08430D1F0D1
:1008FC000C94A004713011F00C948A04003809F4A3
:10090C00001F001F0C94A004013009F407950795F3
:10091C000C94A0040F3F19F40FEF0C94A00403ECFB
:10092C000C94A004033C19F403EC0C94A0040FEFFA
:10093C000C94A00400930E0208B9CBE0D2E000277F
:10094C0009930883C0910D02C395C0930D0204C096
:10095C00C0930B02D0930C02DF91CF919F918F919A
:10096C008F910F910FBF0F9118950F930FB70F9396
:10097C00833011F00C94D104CBE0D2E00027099322
:10098C000883CDE0D2E000270883CEE0D2E0002738
:10099C00088303EC84E00F910FBF0F9118950F9310
:1009AC000FB70F93833014F40C94EB04CBE0D2E02C
:1009BC00002709930883CDE0D2E000270883CEE01E
:1009CC00D2E0002708830FEF82E00F910FBF0F9149
:1009DC001895FFCF01BB1FD0169A1DD016981BD0AF
:1009EC00089501BB179A17D0169A15D0169813D0E4
:1009FC00179808950F93002700BB01BB159A0BD0D5
:100A0C00169A09D00FB1169807FDF9CF15980FEF6C
:100A1C0000BB0F9108958F939F939FE08CE90197F2
:100A2C00F1F79F918F910895F6DFF5DFF4DFF3DF97
:040A3C00F2DF089548
:00000001FF
