:020000020000FC
:10005C000C948F0101BB1FD0169A1DD016981BD083
:10006C00089501BB179A17D0169A15D0169813D06D
:10007C00179808950F93002700BB01BB159A0BD05E
:10008C00169A09D00FB1169807FDF9CF15980FEFF6
:10009C0000BB0F9108958F939F939FE08CE901977C
:1000AC00F1F79F918F910895F6DFF5DFF4DFF3DF21
:1000BC00F2DF08950FEF0DBF01E20EBF1FEF10BB73
:1000CC0011B9112711BB12B908E3C4DFD3DFECDF80
:1000DC0008E3C0DFCFDFDFDF08E3BCDFCBDF08E303
:1000EC00B9DFC8DF08E0B6DFC5DF01E0B3DFC2DF90
:1000FC0006E0B0DFBFDF0CE0ADDFBCDFCAE0D2E072
:10010C00002709930883CCE0D2E00027088300E0A5
:10011C00B4BD02E0B5BD01E000936E0002E00093B7
:10012C0069000DB301600DBB00EF00930A0160E0A4
:10013C0071E080E090E0A0E06130C1F101E08ADF85
:10014C0099DF03E48EDF96DF05E78BDF93DF02E7B1
:10015C0088DF90DF02E785DF8DDF05E682DF8ADF4F
:10016C000EE67FDF87DF04E77CDF84DF00E279DFE8
:10017C0081DF06E476DF7EDF0CE673DF7BDF0FE6E4
:10018C0070DF78DF0FE66DDF75DF02E76ADF72DFA5
:10019C000AE367DF6FDF00E264DF6CDF082F10E338
:1001AC00010F5FDF67DFA23060F04BC010930B01D3
:1001BC00009109010F700F3009F0F8CF60E00C943A
:1001CC00A200F2E0E0E0B0E00AE010E032E02191C1
:1001DC00213011F00C941201713011F00C940001CB
:1001EC00B01714F00C941201B81774F4313011F4E8
:1001FC000C941201B11714F40C941201B81740F0BE
:10020C00303071F70C9412010B2F31E00C94120169
:10021C001B2F30E00C941201B395BA3011F00C94F2
:10022C00ED00303021F0313039F00C942701192FCA
:10023C0070E0A1E00C942701092F71E0A1E00C946F
:10024C002701A03019F45FEE332702C0789474CFE5
:10025C00343029F050930B010FEF0C9436016CCF16
:10026C000A95F1F7009109010F700F30A9F01FEFFB
:10027C001A9500000000E1F7009109010F700F3092
:10028C0059F041E02227243039F0102F142349F083
:10029C002395440F0C944901550F539533950C94A9
:1002AC002E013330A9F02330A1F0022F000F020FE2
:1002BC00030F03950C946201E0E0F2E0003021F0B2
:1002CC0031960A950C9464010083152F61E034CFAC
:1002DC0033CF303019F03130A9F02ECFC0E0D2E05E
:1002EC000027099309930993099309930993099397
:1002FC00099309930883E0E0F2E0152F61E001E037
:10030C0000831ACF01E0E0E0F2E00083152F61E0FA
:10031C0013CF0FB70F931F93FF93EF93DF93CF93ED
:10032C009F938F9380910A0290910B0201968438CF
:10033C000EE1900781F4CAE0D2E00027099308830C
:10034C0080910C02839580930C02A13049F0A2306D
:10035C00C9F0A33001F180930A0290930B022CC0D8
:10036C00823009F029C0713009F006C08395CCE0C9
:10037C00D2E00027088320C08A95CCE0D2E0002789
:10038C0008831AC0813009F017C0A2E0CCE0D2E09B
:10039C000027088311C0833001F0A3E0CCE0D2E049
:1003AC000027088309C0813009F006C0A0E0CCE02A
:1003BC00D2E00027088300C08F919F91CF91DF91ED
:1003CC00EF91FF910F91BFBF18950F930FB70F933C
:1003DC00A23011F00C94F401A3E000C00F910FBFF8
:0403EC000F911895C0
:00000001FF
