:020000020000FC
:080000000C9430000C946E0416
:10005C000C9420040FEF0DBF01E20EBFCBE0D2E0F9
:10006C00002709930883CDE0D2E000270883C0E085
:10007C00D2E00027099309930993099309930993F3
:10008C000993099309930883CAE0D2E000270883F7
:10009C0060E071E0FF24EE2488270FEF07B900BB66
:1000AC0001B9002701BB02B901E000930E0208B9A7
:1000BC0008E324D433D44CD408E320D42FD43FD435
:1000CC0008E31CD42BD408E319D428D408E016D4A4
:1000DC0025D401E013D422D406E010D41FD40CE0B4
:1000EC000DD41CD401E00AD419D403E40ED416D4D4
:1000FC0005E70BD413D402E708D410D402E705D4D7
:10010C000DD405E602D40AD40EE6FFD307D404E7D7
:10011C00FCD304D400E2F9D301D406E4F6D3FED325
:10012C000CE6F3D3FBD30FE6F0D3F8D30FE6EDD305
:10013C00F5D302E7EAD3F2D30AE3E7D3EFD300E235
:10014C00E4D3ECD30F2D10E3010FDFD3E7D300EC96
:10015C00D5D3E4D30EE4D9D3E1D305E6D6D3DED39D
:10016C0008E7D3D3DBD304E7D0D3D8D300E2CDD385
:10017C00D5D306E4CAD3D2D30CE6C7D3CFD30FE67C
:10018C00C4D3CCD30FE6C1D3C9D302E7BED3C6D3F5
:10019C000AE3BBD3C3D300E2B8D3C0D30E2D10E314
:1001AC00010FB3D3BBD300EF00930A0102E000931D
:1001BC0069000DB301600DBB00E004BD02E005BD9C
:1001CC0001E000936E007894723021F0823054F08C
:1001DC000C94360100E0F01611F00C94DB0282E076
:1001EC000C943601F2E0E0E0B0E00AE010E032E01E
:1001FC002191213011F00C942301713011F00C94E9
:10020C001101B01714F00C942301BF1574F43130A4
:10021C0011F40C942301B11714F40C942301BF15A1
:10022C0040F0303071F70C9423010B2F31E00C941B
:10023C0023011B2F30E00C942301B395BA3011F03D
:10024C000C94FE00303041F0313011F00C9436013A
:10025C00E01631F00C940F02E11611F00C947502BB
:10026C00C0910D02823041F08330C1F0843009F12D
:10027C00813071F10C94F501C13011F00C94F50141
:10028C0083E0CEE0D2E00027088303EC00930E025B
:10029C00CDE0D2E0002708830C94F501C33011F0B7
:1002AC000C94F50184E0CDE0D2E0002708830C9497
:1002BC00F501C13011F00C94F50180E0CDE0D2E0F5
:1002CC0000270883723011F00C9487010C94F5010F
:1002DC00C23011F00C94F501CDE0D2E00027088378
:1002EC00713011F00C947F01F394FE1439F00C94DE
:1002FC009401FA94FE1411F00C94940182E00C9485
:10030C009401E0E0F2E000E00F1521F00395319646
:10031C000C948A0110E010830C94F50101E0EED2EC
:10032C00FDD203E4F2D2FAD205E7EFD2F7D202E71C
:10033C00ECD2F4D202E7E9D2F1D205E6E6D2EED263
:10034C000EE6E3D2EBD204E7E0D2E8D200E2DDD253
:10035C00E5D206E4DAD2E2D20CE6D7D2DFD20FE64F
:10036C00D4D2DCD20FE6D1D2D9D202E7CED2D6D2B9
:10037C000AE3CBD2D3D200E2C8D2D0D20F2D10E3F5
:10038C00010FC3D2CBD200ECB9D2C8D20EE4BDD28D
:10039C00C5D205E6BAD2C2D208E7B7D2BFD204E7BB
:1003AC00B4D2BCD200E2B1D2B9D206E4AED2B6D24B
:1003BC000CE6ABD2B3D20FE6A8D2B0D20FE6A5D2E0
:1003CC00ADD202E7A2D2AAD20AE39FD2A7D200E210
:1003DC009CD2A4D20E2D10E3010F97D29FD2723073
:1003EC0021F0613021F00C94A2030C94DB021091EB
:1003FC000A0210930B01009109010F700F3011F0DC
:10040C000C94EA00CAE0D2E00027088360E00C9468
:10041C00EA00E02E71E081E001E070D27FD203E4CB
:10042C0074D27CD205E771D279D202E76ED276D241
:10043C0002E76BD273D205E668D270D20EE665D2B3
:10044C006DD204E762D26AD200E25FD267D206E4D0
:10045C005CD264D20CE659D261D20FE656D25ED28F
:10046C000FE653D25BD202E750D258D20AE34DD2F8
:10047C0055D200E24AD252D20F2D10E3010F45D2D1
:10048C004DD200EC3BD24AD20EE43FD247D205E625
:10049C003CD244D208E739D241D204E736D23ED21C
:1004AC0000E233D23BD206E430D238D20CE62DD265
:1004BC0035D20FE62AD232D20FE627D22FD202E75C
:1004CC0024D22CD20AE321D229D200E21ED226D287
:1004DC000E2D10E3010F19D221D20C943601E12E0E
:1004EC0070E081E001E00AD219D203E40ED216D2F8
:1004FC0005E70BD213D202E708D210D202E705D2DD
:10050C000DD205E602D20AD20EE6FFD107D204E7DD
:10051C00FCD104D200E2F9D101D206E4F6D1FED12D
:10052C000CE6F3D1FBD10FE6F0D1F8D10FE6EDD10B
:10053C00F5D102E7EAD1F2D10AE3E7D1EFD100E23B
:10054C00E4D1ECD10F2D10E3010FDFD1E7D100EC9A
:10055C00D5D1E4D10EE4D9D1E1D105E6D6D1DED1A5
:10056C0008E7D3D1DBD104E7D0D1D8D100E2CDD18B
:10057C00D5D106E4CAD1D2D10CE6C7D1CFD10FE682
:10058C00C4D1CCD10FE6C1D1C9D102E7BED1C6D1FD
:10059C000AE3BBD1C3D100E2B8D1C0D10E2D10E318
:1005AC00010FB3D1BBD10C94360100E0F01641F031
:1005BC0082301CF084E00C94360181E00C943601FE
:1005CC00803011F00C94360101E098D1A7D105E4EC
:1005DC009CD1A4D10DE699D1A1D105E696D19ED19D
:1005EC0002E793D19BD107E690D198D105E68DD146
:1005FC0095D10EE68AD192D103E687D18FD109E746
:10060C0084D18CD100EC7AD189D103E47ED186D10E
:10061C0001E67BD183D10CE678D180D10CE675D183
:10062C007DD100E272D17AD100E36FD177D100E3B2
:10063C006CD174D100E369D171D110910A0210937D
:10064C000B01009109010F700F30B9F348E0102F26
:10065C00142311F00C94230371E0FF24EE2488275B
:10066C00CBE0D2E0002709930883CDE0D2E000274D
:10067C00088301E043D152D103E447D14FD105E7C0
:10068C0044D14CD102E741D149D102E73ED146D108
:10069C0005E63BD143D10EE638D140D104E735D144
:1006AC003DD100E232D13AD106E42FD137D10CE65C
:1006BC002CD134D10FE629D131D10FE626D12ED150
:1006CC0002E723D12BD10AE320D128D100E21DD19E
:1006DC0025D10F2D10E3010F18D120D100EC0ED134
:1006EC001DD10EE412D11AD105E60FD117D108E7AE
:1006FC000CD114D104E709D111D100E206D10ED1ED
:10070C0006E403D10BD10CE600D108D10FE6FDD0E5
:10071C0005D10FE6FAD002D102E7F7D0FFD00AE3F9
:10072C00F4D0FCD000E2F1D0F9D00E2D10E3010F83
:10073C00ECD0F4D00C94FD015FEE33270C94A8039D
:10074C000C94EA003430E1F350930B010FEF0A954F
:10075C00F1F7009109010F700F30B1F01FEF1A95EE
:10076C00000000000000D9F7009109010F700F3054
:10077C0059F041E02227243039F0102F142349F08E
:10078C002395440F0C94C103550F539533950C943A
:10079C00A8033330B1F02330B1F0022F000F020F59
:1007AC00030F0395F2E0E0E0003021F00A9531965A
:1007BC000C94DA0301E0008350930A0261E00C947C
:1007CC00EA000C94EA00303021F0313059F10C94ED
:1007DC00EA00EE2472E061E0C0E0D2E00027099369
:1007EC00099309930993099309930993099309931D
:1007FC000883CDE0D2E00027088350930A02152F1E
:10080C000AE283D08BD00C940B0410930B010000E4
:10081C000000009109010F700F3011F00C940B04C3
:10082C000C94F000F2E0E0E001E0008350930A0247
:10083C0061E0CACC0F930FB70F938F938F939F9355
:10084C00CF93DF938030D9F1C0910B02D0910C0281
:10085C002196C4380EE1D00711F00C94610400917C
:10086C000E02813031F08230A1F08430A1F00C9472
:10087C005304713011F00C944904003809F4001F32
:10088C00001F0C945304013009F4079507950C9440
:10089C0053040C9453040C94530400930E0208B9A3
:1008AC00CBE0D2E0002709930883C0910D02C395D9
:1008BC00C0930D0204C0C0930B02D0930C02DF91C5
:1008CC00CF919F918F918F910F910FBF0F91189591
:1008DC000F930FB70F93833011F00C947F04CBE080
:1008EC00D2E0002709930883CDE0D2E000270883EB
:1008FC0084E00F910FBF0F911895FFCF01BB1FD054
:10090C00169A1DD016981BD0089501BB179A17D0B4
:10091C00169A15D0169813D0179808950F93002790
:10092C0000BB01BB159A0BD0169A09D00FB11698C3
:10093C0007FDF9CF15980FEF00BB0F9108958F931A
:10094C009F939FE08CE90197F1F79F918F91089508
:0C095C00F6DFF5DFF4DFF3DFF2DF0895D3
:00000001FF
