:020000020000FC
:040004000C94260230
:10005C000C94B00101BB1FD0169A1DD016981BD062
:10006C00089501BB179A17D0169A15D0169813D06D
:10007C00179808950F93002700BB01BB159A0BD05E
:10008C00169A09D00FB1169807FDF9CF15980FEFF6
:10009C0000BB0F9108958F939F939FE08CE901977C
:1000AC00F1F79F918F910895F6DFF5DFF4DFF3DF21
:1000BC00F2DF08950FEF0DBF01E20EBF1FEF10BB73
:1000CC0011B9112711BB12B908E3C4DFD3DFECDF80
:1000DC0008E3C0DFCFDFDFDF08E3BCDFCBDF08E303
:1000EC00B9DFC8DF08E0B6DFC5DF01E0B3DFC2DF90
:1000FC0006E0B0DFBFDF0CE0ADDFBCDFCAE0D2E072
:10010C00002709930883CCE0D2E00027088300E0A5
:10011C00B4BD02E0B5BD01E000936E0002E00093B7
:10012C0069000DB301600DBB00EF00930A01CDE037
:10013C00D2E000270883C0E0D2E00027099309939E
:10014C0009930993099309930993099309930883D4
:10015C0060E071E080E090E0A0E001E07BDF8ADF0E
:10016C0003E47FDF87DF05E77CDF84DF02E779DFED
:10017C0081DF02E776DF7EDF05E673DF7BDF0EE6ED
:10018C0070DF78DF04E76DDF75DF00E26ADF72DFB6
:10019C0006E467DF6FDF0CE664DF6CDF0FE661DF20
:1001AC0069DF0FE65EDF66DF02E75BDF63DF0AE332
:1001BC0058DF60DF00E255DF5DDF082F10E3010F31
:1001CC0050DF58DF092F10E3010F4BDF53DFA23054
:1001DC0008F045C0F2E0E0E0B0E00AE010E032E008
:1001EC002191213011F00C941B01713011F00C9401
:1001FC000901B01714F00C941B01B81774F43130CA
:10020C0011F40C941B01B11714F40C941B01B817C6
:10021C0040F0303071F70C941B010B2F31E00C9433
:10022C001B011B2F30E00C941B01B395BA3011F05D
:10023C000C94F600303021F0313039F00C94300150
:10024C00912F70E0A1E00C943001902F71E0A1E0AF
:10025C000C943001A03009F402C0789400C06130D5
:10026C0019F05FEE332712C010910D0210930B01A1
:10027C00009109010F700F3011F00C94B300CDE018
:10028C00D2E00027088360E00C94B300343029F0EE
:10029C0050930B010FEF0C9454015FCF0A95F1F7BB
:1002AC00009109010F700F30A9F01FEF1A95000093
:1002BC000000E1F7009109010F700F3059F041E097
:1002CC002227243039F0102F142349F02395440FA2
:1002DC000C946701550F539533950C944C013330A6
:1002EC00B1F02330A9F0022F000F020F030F03957A
:1002FC000C948001E0E0F2E0003021F031960A9598
:10030C000C948201008350930D0261E026CF25CF1F
:10031C00303019F03130B1F020CFC0E0D2E00027FE
:10032C0009930993099309930993099309930993E1
:10033C0009930883E0E0F2E050930D0261E001E0E4
:10034C0000830BCF01E0E0E0F2E0008350930D025C
:10035C0061E003CF0FB70F931F93FF93EF93DF93DE
:10036C00CF939F938F9380910A0290910B020196E9
:10037C0084380EE19007A1F4CAE0D2E0002709937B
:10038C00088380910C02839580930C02A23069F053
:10039C00A330A1F0A430D9F0A13019F10C941C02B7
:1003AC0080930A0290930B0241C0813009F03EC049
:1003BC00A3E0CCE0D2E00027088338C0833009F0FA
:1003CC0035C0A4E0CCE0D2E0002708832FC08130F8
:1003DC0009F02CC0A0E0CCE0D2E0002708830C94FC
:1003EC000F02823009F022C0713009F008C08395E9
:1003FC00CCE0D2E000270883891749F017C08A9512
:10040C00CCE0D2E000270883891709F00FC0A2E0E6
:10041C000DC0E0E0F2E000E0081721F00395319602
:10042C000C94120210E010830C941C028F919F917B
:10043C00CF91DF91EF91FF911F910F910FBF189505
:10044C000F930FB70F93A33011F00C942F02A4E06D
:0A045C0000C00F910FBF0F9118951B
:00000001FF
