:020000020000FC
:080000000C9430000C94450340
:10005C000C941C030FEF0DBF01E20EBFCBE0D2E0FE
:10006C00002709930883CDE0D2E000270883C0E085
:10007C00D2E00027099309930993099309930993F3
:10008C000993099309930883CAE0D2E000270883F7
:10009C0060E071E080E090E0A0E00FEF00BB01B900
:1000AC00002701BB02B908E3F7D206D31FD308E33C
:1000BC00F3D202D312D308E3EFD2FED208E3ECD290
:1000CC00FBD208E0E9D2F8D201E0E6D2F5D206E0A4
:1000DC00E3D2F2D20CE0E0D2EFD201E0DDD2ECD2EE
:1000EC0003E4E1D2E9D205E7DED2E6D202E7DBD2C5
:1000FC00E3D202E7D8D2E0D205E6D5D2DDD20EE6C5
:10010C00D2D2DAD204E7CFD2D7D200E2CCD2D4D238
:10011C0006E4C9D2D1D20CE6C6D2CED20FE6C3D2F7
:10012C00CBD20FE6C0D2C8D202E7BDD2C5D20AE309
:10013C00BAD2C2D200E2B7D2BFD2082F10E3010F5D
:10014C00B2D2BAD200ECA8D2B7D20EE4ACD2B4D2AE
:10015C0005E6A9D2B1D208E7A6D2AED204E7A3D263
:10016C00ABD200E2A0D2A8D206E49DD2A5D20CE676
:10017C009AD2A2D20FE697D29FD20FE694D29CD2FB
:10018C0002E791D299D20AE38ED296D200E28BD2B8
:10019C0093D2092F10E3010F86D28ED200E283D2C4
:1001AC008BD200EF00930A0100E004BD02E005BD14
:1001BC0001E000936E007894A23014F00C942401AA
:1001CC00F2E0E0E0B0E00AE010E032E02191213012
:1001DC0011F00C941101713011F00C94FF00B01758
:1001EC0014F00C941101B81774F4313011F40C9410
:1001FC001101B11714F40C941101B81740F0303000
:10020C0071F70C9411010B2F31E00C9411011B2F81
:10021C0030E00C941101B395BA3011F00C94EC0051
:10022C00303041F0313011F00C942401901731F042
:10023C000C94F501911711F00C945E02C0910D0213
:10024C00A23041F0A33089F0A430D1F0A13019F1E3
:10025C000C94DF01C13011F00C94DF01A3E0CDE070
:10026C00D2E0002708830C94DF01C33011F00C940A
:10027C00DF01A4E0CDE0D2E0002708830C94DF017D
:10028C00C13011F00C94DF01A0E0CDE0D2E00027EA
:10029C0008830C946A01C23011F00C94DF01CDE09C
:1002AC00D2E000270883713011F00C946201839521
:1002BC00891739F00C9477018A95891711F00C94F1
:1002CC007701A2E00C947701E0E0F2E000E008177F
:1002DC0021F0039531960C946D0110E010830C9471
:1002EC00DF0101E0D9D1E8D103E4DDD1E5D105E7A7
:1002FC00DAD1E2D102E7D7D1DFD102E7D4D1DCD118
:10030C0005E6D1D1D9D10EE6CED1D6D104E7CBD1E9
:10031C00D3D100E2C8D1D0D106E4C5D1CDD10CE601
:10032C00C2D1CAD10FE6BFD1C7D10FE6BCD1C4D15F
:10033C0002E7B9D1C1D10AE3B6D1BED100E2B3D143
:10034C00BBD1082F10E3010FAED1B6D100ECA4D174
:10035C00B3D10EE4A8D1B0D105E6A5D1ADD108E753
:10036C00A2D1AAD104E79FD1A7D100E29CD1A4D1FC
:10037C0006E499D1A1D10CE696D19ED10FE693D18A
:10038C009BD10FE690D198D102E78DD195D10AE39C
:10039C008AD192D100E287D18FD1092F10E3010FBE
:1003AC0082D18AD100E27FD187D1613031F00C94B7
:1003BC00C702613011F00C94C70210910A0210931D
:1003CC000B01009109010F700F3011F00C94E20039
:1003DC00CAE0D2E00027088360E00C94E200902F82
:1003EC0071E0A1E001E058D167D103E45CD164D1A4
:1003FC0005E759D161D102E756D15ED102E753D15D
:10040C005BD105E650D158D10EE64DD155D104E75C
:10041C004AD152D100E247D14FD106E444D14CD15C
:10042C000CE641D149D10FE63ED146D10FE63BD186
:10043C0043D102E738D140D10AE335D13DD100E2B6
:10044C0032D13AD1082F10E3010F2DD135D100EC68
:10045C0023D132D10EE427D12FD105E624D12CD1D2
:10046C0008E721D129D104E71ED126D100E21BD106
:10047C0023D106E418D120D10CE615D11DD10FE6FD
:10048C0012D11AD10FE60FD117D102E70CD114D12A
:10049C000AE309D111D100E206D10ED1092F10E3E4
:1004AC00010F01D109D100E2FED006D10C94240138
:1004BC00912F70E0A1E001E0EFD0FED003E4F3D087
:1004CC00FBD005E7F0D0F8D002E7EDD0F5D002E78D
:1004DC00EAD0F2D005E6E7D0EFD00EE6E4D0ECD0CF
:1004EC0004E7E1D0E9D000E2DED0E6D006E4DBD0D0
:1004FC00E3D00CE6D8D0E0D00FE6D5D0DDD00FE6B7
:10050C00D2D0DAD002E7CFD0D7D00AE3CCD0D4D037
:10051C0000E2C9D0D1D0082F10E3010FC4D0CCD049
:10052C0000ECBAD0C9D00EE4BED0C6D005E6BBD024
:10053C00C3D008E7B8D0C0D004E7B5D0BDD000E236
:10054C00B2D0BAD006E4AFD0B7D00CE6ACD0B4D0B1
:10055C000FE6A9D0B1D00FE6A6D0AED002E7A3D05B
:10056C00ABD00AE3A0D0A8D000E29DD0A5D0092F33
:10057C0010E3010F98D0A0D000E295D09DD00C9440
:10058C0024015FEE33270C94CD020C94E20034303E
:10059C00E1F350930B010FEF0C94D4020A95F1F791
:1005AC00009109010F700F30B1F01FEF1A95000088
:1005BC0000000000D9F7009109010F700F3059F0BD
:1005CC0041E02227243039F0102F142349F02395D1
:1005DC00440F0C94E802550F539533950C94CD02AF
:1005EC003330B1F02330B1F0022F000F020F030FA4
:1005FC000395F2E0E0E0003021F00A9531960C947E
:10060C00010301E0008350930A0261E00C94E200C4
:10061C000C94E200313011F00C94E200F2E0E0E0D6
:10062C0001E0008350930A0261E0C6CD0F930FB72F
:10063C000F93AF938F939F93CF93DF93A030B1F031
:10064C00C0910B02D0910C022196C4380EE1D00758
:10065C0049F4CBE0D2E000270883C0910D02C3958A
:10066C00C0930D02C0930B02D0930C02DF91CF917B
:10067C009F918F91AF910F910FBF0F9118950F9381
:10068C000FB70F93A33011F00C944D03A4E00F910E
:10069C000FBF0F911895FFCF01BB1FD0169A1DD01D
:1006AC0016981BD0089501BB179A17D0169A15D01F
:1006BC00169813D0179808950F93002700BB01BB11
:1006CC00159A0BD0169A09D00FB1169807FDF9CFD1
:1006DC0015980FEF00BB0F9108958F939F939FE098
:1006EC008CE90197F1F79F918F910895F6DFF5DF73
:0806FC00F4DFF3DFF2DF0895E3
:00000001FF
