:020000020000FC
:0C0000000C9430000C94B7040C94D10454
:10005C000C945B040FEF0DBF01E20EBFCBE0D2E0BE
:10006C00002709930883CDE0D2E000270883C0E085
:10007C00D2E00027099309930993099309930993F3
:10008C000993099309930883CAE0D2E000270883F7
:10009C0060E071E0FF24EE2488270FEF07B900BB66
:1000AC0001B9002701BB02B90FEF00930E0208B98A
:1000BC0008E38CD49BD4B4D408E388D497D4A7D4C5
:1000CC0008E384D493D408E381D490D408E07ED49C
:1000DC008DD401E07BD48AD406E078D487D40CE0AC
:1000EC0075D484D401E072D481D403E476D47ED464
:1000FC0005E773D47BD402E770D478D402E76DD4CF
:10010C0075D405E66AD472D40EE667D46FD404E7CE
:10011C0064D46CD400E261D469D406E45ED466D4B1
:10012C000CE65BD463D40FE658D460D40FE655D4F8
:10013C005DD402E752D45AD40AE34FD457D400E228
:10014C004CD454D40F2D10E3010F47D44FD400ECF2
:10015C003DD44CD40EE441D449D405E63ED446D427
:10016C0008E73BD443D404E738D440D400E235D478
:10017C003DD406E432D43AD40CE62FD437D40FE66F
:10018C002CD434D40FE629D431D402E726D42ED47F
:10019C000AE323D42BD400E220D428D40E2D10E370
:1001AC00010F1BD423D400EF00930A0102E000934B
:1001BC0069000DB301600DBB00E004BD02E005BD9C
:1001CC0001E000936E007894723021F0823054F08C
:1001DC000C94360100E0F01611F00C94040382E04C
:1001EC000C943601F2E0E0E0B0E00AE010E032E01E
:1001FC002191213011F00C942301713011F00C94E9
:10020C001101B01714F00C942301BF1574F43130A4
:10021C0011F40C942301B11714F40C942301BF15A1
:10022C0040F0303071F70C9423010B2F31E00C941B
:10023C0023011B2F30E00C942301B395BA3011F03D
:10024C000C94FE00303041F0313011F00C9436013A
:10025C00E01631F00C942202E11611F00C9493028A
:10026C00C0910D02823041F08330C1F0843031F105
:10027C008130D1F10C940802C13011F00C940802B9
:10028C0083E0CEE0D2E00027088303EC00930E025B
:10029C00CDE0D2E0002708830C940802C33011F0A3
:1002AC000C94080284E0CEE0D2E00027088303EC33
:1002BC00CDE0D2E0002708830C940802C13011F085
:1002CC000C94080280E0CDE0D2E000270883CEE059
:1002DC00D2E00027088300E000930E02723011F088
:1002EC000C949A010C940802C23011F00C94080280
:1002FC00CDE0D2E000270883713011F00C948B0113
:10030C00F394FE1439F00C94A701FA94FE1411F036
:10031C000C94A70182E0CEE0D2E0002708830FEF17
:10032C0000930E020C94A701E0E0F2E000E00F1540
:10033C0021F0039531960C949D0110E010830C94E0
:10034C00080201E043D352D303E447D34FD305E76C
:10035C0044D34CD302E741D349D302E73ED346D32F
:10036C0005E63BD343D30EE638D340D304E735D36D
:10037C003DD300E232D33AD306E42FD337D30CE685
:10038C002CD334D30FE629D331D30FE626D32ED377
:10039C0002E723D32BD30AE320D328D300E21DD3C7
:1003AC0025D30F2D10E3010F18D320D300EC0ED35F
:1003BC001DD30EE412D31AD305E60FD317D308E7D7
:1003CC000CD314D304E709D311D300E206D30ED314
:1003DC0006E403D30BD30CE600D308D30FE6FDD20F
:1003EC0005D30FE6FAD202D302E7F7D2FFD20AE323
:1003FC00F4D2FCD200E2F1D2F9D20E2D10E3010FAF
:10040C00ECD2F4D2723021F0613021F00C94DD0387
:10041C000C94040310910A0210930B010091090132
:10042C000F700F3011F00C94EA00CAE0D2E00027F4
:10043C00088360E00C94EA00E02E803011F00C94FC
:10044C002E02CEE0D2E00027088301E000930E02DA
:10045C0071E081E001E0BAD2C9D203E4BED2C6D2C7
:10046C0005E7BBD2C3D202E7B8D2C0D202E7B5D2FD
:10047C00BDD205E6B2D2BAD20EE6AFD2B7D204E7FD
:10048C00ACD2B4D200E2A9D2B1D206E4A6D2AED29A
:10049C000CE6A3D2ABD20FE6A0D2A8D20FE69DD227
:1004AC00A5D202E79AD2A2D20AE397D29FD200E257
:1004BC0094D29CD20F2D10E3010F8FD297D200EC67
:1004CC0085D294D20EE489D291D205E686D28ED210
:1004DC0008E783D28BD204E780D288D200E27DD2A7
:1004EC0085D206E47AD282D20CE677D27FD20FE69E
:1004FC0074D27CD20FE671D279D202E76ED276D268
:10050C000AE36BD273D200E268D270D20E2D10E3E4
:10051C00010F63D26BD20C943601E12E803011F0B6
:10052C000C949F02CEE0D2E00027088300E10093F8
:10053C000E0270E081E001E049D258D203E44DD2C2
:10054C0055D205E74AD252D202E747D24FD202E740
:10055C0044D24CD205E641D249D20EE63ED246D226
:10056C0004E73BD243D200E238D240D206E435D283
:10057C003DD20CE632D23AD20FE62FD237D20FE66A
:10058C002CD234D202E729D231D20AE326D22ED28F
:10059C0000E223D22BD20F2D10E3010F1ED226D254
:1005AC0000EC14D223D20EE418D220D205E615D2D8
:1005BC001DD208E712D21AD204E70FD217D200E2EA
:1005CC000CD214D206E409D211D20CE606D20ED209
:1005DC000FE603D20BD20FE600D208D202E7FDD110
:1005EC0005D20AE3FAD102D200E2F7D1FFD10E2DE7
:1005FC0010E3010FF2D1FAD10C94360100E0F016A1
:10060C0041F082301CF084E00C94360181E00C94B3
:10061C003601803011F00C94360101E0D7D1E6D1CF
:10062C0000E2DBD1E3D100E2D8D1E0D100E2D5D1B8
:10063C00DDD105E4D2D1DAD10DE6CFD1D7D105E6A3
:10064C00CCD1D4D102E7C9D1D1D107E6C6D1CED114
:10065C0005E6C3D1CBD10EE6C0D1C8D103E6BDD1DE
:10066C00C5D109E7BAD1C2D100ECB0D1BFD100E2FB
:10067C00B4D1BCD100E2B1D1B9D100E2AED1B6D186
:10068C0003E4ABD1B3D101E6A8D1B0D10CE6A5D12E
:10069C00ADD10CE6A2D1AAD100E29FD1A7D100E343
:1006AC009CD1A4D100E399D1A1D100E396D19ED1E4
:1006BC0010910A0210930B01009109010F700F3079
:1006CC00B9F348E0102F142311F00C945E0371E081
:1006DC00FF24EE248827CBE0D2E00027099308837F
:1006EC00CDE0D2E00027088301E070D17FD103E494
:1006FC0074D17CD105E771D179D102E76ED176D175
:10070C0002E76BD173D105E668D170D10EE665D1E5
:10071C006DD104E762D16AD100E25FD167D106E402
:10072C005CD164D10CE659D161D10FE656D15ED1C2
:10073C000FE653D15BD102E750D158D10AE34DD12A
:10074C0055D100E24AD152D10F2D10E3010F45D102
:10075C004DD100EC3BD14AD10EE43FD147D105E657
:10076C003CD144D108E739D141D104E736D13ED14F
:10077C0000E233D13BD106E430D138D10CE62DD197
:10078C0035D10FE62AD132D10FE627D12FD102E78E
:10079C0024D12CD10AE321D129D100E21ED126D1BA
:1007AC000E2D10E3010F19D121D10C9410025FEE24
:1007BC0033270C94E3030C94EA003430E1F35093A8
:1007CC000B010FEF0A95F1F7009109010F700F3033
:1007DC00B1F01FEF1A95000000000000D9F700914E
:1007EC0009010F700F3059F041E02227243039F005
:1007FC00102F142349F02395440F0C94FC03550F30
:10080C00539533950C94E3033330B1F02330B1F0AE
:10081C00022F000F020F030F0395F2E0E0E000300F
:10082C0021F00A9531960C94150401E00083509345
:10083C000A0261E00C94EA000C94EA00303021F0DA
:10084C00313059F10C94EA00EE2472E061E0C0E022
:10085C00D2E000270993099309930993099309930B
:10086C000993099309930883CDE0D2E0002708830C
:10087C0050930A02152F0AE2B0D0B8D00C9446045B
:10088C0010930B0100000000009109010F700F3054
:10089C0011F00C9446040C94F000F2E0E0E001E05E
:1008AC00008350930A0261E08FCC0F930FB70F9324
:1008BC008F938F939F93CF93DF93803059F0C09198
:1008CC000B02D0910C022196C4380EE1D00721F016
:1008DC000C94AA040C94AE0400910E02813031F0F9
:1008EC008230A1F08430D1F00C949C04713011F062
:1008FC000C948604003809F4001F001F0C949C040F
:10090C00013009F4079507950C949C040F3F19F4DA
:10091C000FEF0C949C0403EC0C949C04033C19F412
:10092C0003EC0C949C040FEF0C949C0400930E02AB
:10093C0008B9CBE0D2E0002709930883C0910D02DF
:10094C00C395C0930D0204C0C0930B02D0930C024C
:10095C00DF91CF919F918F918F910F910FBF0F913D
:10096C0018950F930FB70F93833011F00C94CD049F
:10097C00CBE0D2E0002709930883CDE0D2E000273A
:10098C000883CEE0D2E00027088303EC84E00F91CB
:10099C000FBF0F9118950F930FB70F93833014F46B
:1009AC000C94E704CBE0D2E0002709930883CDE058
:1009BC00D2E000270883CEE0D2E0002708830FEFB7
:1009CC0082E00F910FBF0F911895FFCF01BB1FD085
:1009DC00169A1DD016981BD0089501BB179A17D0E4
:1009EC00169A15D0169813D0179808950F930027C0
:1009FC0000BB01BB159A0BD0169A09D00FB11698F3
:100A0C0007FDF9CF15980FEF00BB0F9108958F9349
:100A1C009F939FE08CE90197F1F79F918F91089537
:0C0A2C00F6DFF5DFF4DFF3DFF2DF089502
:00000001FF
