:020000020000FC
:080000000C9430000C944B033A
:10005C000C9422030FEF0DBF01E20EBFCBE0D2E0F8
:10006C00002709930883CDE0D2E000270883C0E085
:10007C00D2E00027099309930993099309930993F3
:10008C000993099309930883CAE0D2E000270883F7
:10009C0060E071E0FF24EE2488270FEF00BB01B96C
:1000AC00002701BB02B908E309D318D331D308E305
:1000BC0005D314D324D308E301D310D308E3FED221
:1000CC000DD308E0FBD20AD301E0F8D207D306E047
:1000DC00F5D204D30CE0F2D201D301E0EFD2FED280
:1000EC0003E4F3D2FBD205E7F0D2F8D202E7EDD26B
:1000FC00F5D202E7EAD2F2D205E6E7D2EFD20EE66B
:10010C00E4D2ECD204E7E1D2E9D200E2DED2E6D2CC
:10011C0006E4DBD2E3D20CE6D8D2E0D20FE6D5D29D
:10012C00DDD20FE6D2D2DAD202E7CFD2D7D20AE3AF
:10013C00CCD2D4D200E2C9D2D1D20F2D10E3010F10
:10014C00C4D2CCD200ECBAD2C9D20EE4BED2C6D242
:10015C0005E6BBD2C3D208E7B8D2C0D204E7B5D209
:10016C00BDD200E2B2D2BAD206E4AFD2B7D20CE61C
:10017C00ACD2B4D20FE6A9D2B1D20FE6A6D2AED28F
:10018C0002E7A3D2ABD20AE3A0D2A8D200E29DD25E
:10019C00A5D20E2D10E3010F98D2A0D200E295D279
:1001AC009DD200EF00930A0102E0009369000DB3A9
:1001BC0001600DBB00E004BD02E005BD01E0009351
:1001CC006E007894823014F00C942A01F2E0E0E096
:1001DC00B0E00AE010E032E02191213011F00C94F3
:1001EC001701713011F00C940501B01714F00C9438
:1001FC001701BF1574F4313011F40C941701B117B9
:10020C0014F40C941701BF1540F0303071F70C94B6
:10021C0017010B2F31E00C9417011B2F30E00C94BD
:10022C001701B395BA3011F00C94F200303041F054
:10023C00313011F00C942A01E01631F00C94FB01D2
:10024C00E11611F00C946402C0910D02823041F061
:10025C00833089F08430D1F0813019F10C94E501B0
:10026C00C13011F00C94E50183E0CDE0D2E0002721
:10027C0008830C94E501C33011F00C94E50184E083
:10028C00CDE0D2E0002708830C94E501C13011F0D9
:10029C000C94E50180E0CDE0D2E0002708830C94BB
:1002AC007001C23011F00C94E501CDE0D2E00027D2
:1002BC000883713011F00C946801F394FE1439F03A
:1002CC000C947D01FA94FE1411F00C947D0182E0E3
:1002DC000C947D01E0E0F2E000E00F1521F00395B5
:1002EC0031960C94730110E010830C94E50101E03D
:1002FC00E5D1F4D103E4E9D1F1D105E7E6D1EED1B2
:10030C0002E7E3D1EBD102E7E0D1E8D105E6DDD19C
:10031C00E5D10EE6DAD1E2D104E7D7D1DFD100E2A4
:10032C00D4D1DCD106E4D1D1D9D10CE6CED1D6D101
:10033C000FE6CBD1D3D10FE6C8D1D0D102E7C5D1CE
:10034C00CDD10AE3C2D1CAD100E2BFD1C7D10F2DA2
:10035C0010E3010FBAD1C2D100ECB0D1BFD10EE481
:10036C00B4D1BCD105E6B1D1B9D108E7AED1B6D183
:10037C0004E7ABD1B3D100E2A8D1B0D106E4A5D14A
:10038C00ADD10CE6A2D1AAD10FE69FD1A7D10FE631
:10039C009CD1A4D102E799D1A1D10AE396D19ED1E7
:1003AC0000E293D19BD10E2D10E3010F8ED196D18B
:1003BC0000E28BD193D1613031F00C94CD026130DD
:1003CC0011F00C94CD0210910A0210930B010091C4
:1003DC0009010F700F3011F00C94E800CAE0D2E064
:1003EC000027088360E00C94E800E02E71E081E0C7
:1003FC0001E064D173D103E468D170D105E765D114
:10040C006DD102E762D16AD102E75FD167D105E60F
:10041C005CD164D10EE659D161D104E756D15ED1DD
:10042C0000E253D15BD106E450D158D10CE64DD14A
:10043C0055D10FE64AD152D10FE647D14FD102E741
:10044C0044D14CD10AE341D149D100E23ED146D14D
:10045C000F2D10E3010F39D141D100EC2FD13ED13A
:10046C000EE433D13BD105E630D138D108E72DD19C
:10047C0035D104E72AD132D100E227D12FD106E4BD
:10048C0024D12CD10CE621D129D10FE61ED126D1B5
:10049C000FE61BD123D102E718D120D10AE315D1E5
:1004AC001DD100E212D11AD10E2D10E3010F0DD186
:1004BC0015D100E20AD112D10C942A01E12E70E080
:1004CC0081E001E0FBD00AD103E4FFD007D105E7BE
:1004DC00FCD004D102E7F9D001D102E7F6D0FED06E
:1004EC0005E6F3D0FBD00EE6F0D0F8D004E7EDD063
:1004FC00F5D000E2EAD0F2D006E4E7D0EFD00CE67B
:10050C00E4D0ECD00FE6E1D0E9D00FE6DED0E6D0B7
:10051C0002E7DBD0E3D00AE3D8D0E0D000E2D5D0BC
:10052C00DDD00F2D10E3010FD0D0D8D000ECC6D009
:10053C00D5D00EE4CAD0D2D005E6C7D0CFD008E7CC
:10054C00C4D0CCD004E7C1D0C9D000E2BED0C6D054
:10055C0006E4BBD0C3D00CE6B8D0C0D00FE6B5D003
:10056C00BDD00FE6B2D0BAD002E7AFD0B7D00AE315
:10057C00ACD0B4D000E2A9D0B1D00E2D10E3010F55
:10058C00A4D0ACD000E2A1D0A9D00C942A015FEE8B
:10059C0033270C94D3020C94E8003430E1F35093DD
:1005AC000B010FEF0C94DA020A95F1F70091090197
:1005BC000F700F30B1F01FEF1A9500000000000013
:1005CC00D9F7009109010F700F3059F041E0222743
:1005DC00243039F0102F142349F02395440F0C9438
:1005EC00EE02550F539533950C94D3023330B1F082
:1005FC002330B1F0022F000F020F030F0395F2E02E
:10060C00E0E0003021F00A9531960C94070301E0EC
:10061C00008350930A0261E00C94E8000C94E8000B
:10062C00313011F00C94E800F2E0E0E001E00083DE
:10063C0050930A0261E0C6CD0F930FB70F938F93BF
:10064C008F939F93CF93DF938030B1F0C0910B02C7
:10065C00D0910C022196C4380EE1D00749F4CBE0BE
:10066C00D2E000270883C0910D02C395C0930D0200
:10067C00C0930B02D0930C02DF91CF919F918F917D
:10068C008F910F910FBF0F9118950F930FB70F9379
:10069C0009E51BD023D0833011F00C945F03CBE021
:1006AC00D2E0002709930883CDE0D2E0002708832D
:1006BC0084E00F910FBF0F911895FFCF01BB1FD096
:1006CC00169A1DD016981BD0089501BB179A17D0F7
:1006DC00169A15D0169813D0179808950F930027D3
:1006EC0000BB01BB159A0BD0169A09D00FB1169806
:1006FC0007FDF9CF15980FEF00BB0F9108958F935D
:10070C009F939FE08CE90197F1F79F918F9108954A
:0C071C00F6DFF5DFF4DFF3DFF2DF089515
:00000001FF
