:020000020000FC
:080000000C9430000C94B404D0
:10005C000C9458040FEF0DBF01E20EBFCBE0D2E0C1
:10006C00002709930883CDE0D2E000270883C0E085
:10007C00D2E00027099309930993099309930993F3
:10008C000993099309930883CAE0D2E000270883F7
:10009C0060E071E0FF24EE2488270FEF07B900BB66
:1000AC0001B9002701BB02B90FEF00930E0208B98A
:1000BC0008E36AD479D492D408E366D475D485D491
:1000CC0008E362D471D408E35FD46ED408E05CD446
:1000DC006BD401E059D468D406E056D465D40CE056
:1000EC0053D462D401E050D45FD403E454D45CD430
:1000FC0005E751D459D402E74ED456D402E74BD479
:10010C0053D405E648D450D40EE645D44DD404E778
:10011C0042D44AD400E23FD447D406E43CD444D47D
:10012C000CE639D441D40FE636D43ED40FE633D4A2
:10013C003BD402E730D438D40AE32DD435D400E2D2
:10014C002AD432D40F2D10E3010F25D42DD400EC7A
:10015C001BD42AD40EE41FD427D405E61CD424D4F3
:10016C0008E719D421D404E716D41ED400E213D422
:10017C001BD406E410D418D40CE60DD415D40FE619
:10018C000AD412D40FE607D40FD402E704D40CD44B
:10019C000AE301D409D400E2FED306D40E2D10E3F9
:1001AC00010FF9D301D408E000930A010AE400938B
:1001BC00280100270093290101E00093210101E8A7
:1001CC000093200100EF00930A0102E00093690004
:1001DC000DB301600DBB00E004BD02E005BD01E004
:1001EC0000936E007894723021F0823054F00C94AD
:1001FC00450100E0F01611F00C94130382E00C940E
:10020C004501F2E0E0E0B0E00AE010E032E02191DC
:10021C00213011F00C943201713011F00C9420014A
:10022C00B01714F00C943201BF1574F4313011F482
:10023C000C943201B11714F40C943201BF1540F038
:10024C00303071F70C9432010B2F31E00C943201E9
:10025C001B2F30E00C943201B395BA3011F00C9492
:10026C000D01303041F0313011F00C944501E016A5
:10027C0031F00C943102E11611F00C94A202C091F1
:10028C000D02823041F08330C1F0843031F1813085
:10029C00D1F10C941702C13011F00C94170283E0C9
:1002AC00CEE0D2E00027088303EC00930E02CDE0F1
:1002BC00D2E0002708830C941702C33011F00C9481
:1002CC00170284E0CEE0D2E00027088303ECCDE0F7
:1002DC00D2E0002708830C941702C13011F00C9463
:1002EC00170280E0CDE0D2E000270883CEE0D2E018
:1002FC000027088300E000930E02723011F00C947A
:10030C00A9010C941702C23011F00C941702CDE025
:10031C00D2E000270883713011F00C949A01F39409
:10032C00FE1439F00C94B601FA94FE1411F00C94EE
:10033C00B60182E0CEE0D2E0002708830FEF0093F5
:10034C000E020C94B601E0E0F2E000E00F1521F093
:10035C00039531960C94AC0110E010830C941702A9
:10036C0001E012D321D303E416D31ED305E713D334
:10037C001BD302E710D318D302E70DD315D305E630
:10038C000AD312D30EE607D30FD304E704D30CD34E
:10039C0000E201D309D306E4FED206D30CE6FBD26D
:1003AC0003D30FE6F8D200D30FE6F5D2FDD202E765
:1003BC00F2D2FAD20AE3EFD2F7D200E2ECD2F4D2C4
:1003CC000F2D10E3010FE7D2EFD200ECDDD2ECD20F
:1003DC000EE4E1D2E9D205E6DED2E6D208E7DBD2C2
:1003EC00E3D204E7D8D2E0D200E2D5D2DDD206E4E3
:1003FC00D2D2DAD20CE6CFD2D7D20FE6CCD2D4D22C
:10040C000FE6C9D2D1D202E7C6D2CED20AE3C3D20A
:10041C00CBD200E2C0D2C8D20E2D10E3010FBBD25A
:10042C00C3D2723021F0613021F00C94DA030C94B9
:10043C00130310910A0210930B01009109010F7024
:10044C000F3011F00C94F900CAE0D2E000270883B9
:10045C0060E00C94F900E02E803011F00C943D0219
:10046C00CEE0D2E00027088301E000930E0271E099
:10047C0081E001E089D298D203E48DD295D205E7D0
:10048C008AD292D202E787D28FD202E784D28CD260
:10049C0005E681D289D20EE67ED286D204E77BD2E3
:1004AC0083D200E278D280D206E475D27DD20CE6FB
:1004BC0072D27AD20FE66FD277D20FE66CD274D2A8
:1004CC0002E769D271D20AE366D26ED200E263D23D
:1004DC006BD20F2D10E3010F5ED266D200EC54D21A
:1004EC0063D20EE458D260D205E655D25DD208E74D
:1004FC0052D25AD204E74FD257D200E24CD254D245
:10050C0006E449D251D20CE646D24ED20FE643D283
:10051C004BD20FE640D248D202E73DD245D20AE395
:10052C003AD242D200E237D23FD20E2D10E3010F65
:10053C0032D23AD20C944501E12E803011F00C9459
:10054C00AE02CEE0D2E00027088300E100930E0259
:10055C0070E081E001E018D227D203E41CD224D24F
:10056C0005E719D221D202E716D21ED202E713D226
:10057C001BD205E610D218D20EE60DD215D204E726
:10058C000AD212D200E207D20FD206E404D20CD265
:10059C000CE601D209D20FE6FED106D20FE6FBD152
:1005AC0003D202E7F8D100D20AE3F5D1FDD100E283
:1005BC00F2D1FAD10F2D10E3010FEDD1F5D100ECF2
:1005CC00E3D1F2D10EE4E7D1EFD105E6E4D1ECD1E1
:1005DC0008E7E1D1E9D104E7DED1E6D100E2DBD1D5
:1005EC00E3D106E4D8D1E0D10CE6D5D1DDD10FE6CC
:1005FC00D2D1DAD10FE6CFD1D7D102E7CCD1D4D139
:10060C000AE3C9D1D1D100E2C6D1CED10E2D10E36F
:10061C00010FC1D1C9D10C94450100E0F01641F095
:10062C0082301CF084E00C94450181E00C9445016F
:10063C00803011F00C94450101E0A6D1B5D105E450
:10064C00AAD1B2D10DE6A7D1AFD105E6A4D1ACD1D8
:10065C0002E7A1D1A9D107E69ED1A6D105E69BD18F
:10066C00A3D10EE698D1A0D103E695D19DD109E78F
:10067C0092D19AD100EC88D197D103E48CD194D14A
:10068C0001E689D191D10CE686D18ED10CE683D1CD
:10069C008BD100E280D188D100E37DD185D100E3FC
:1006AC007AD182D100E377D17FD110910A021093D5
:1006BC000B01009109010F700F30B9F348E0102FB6
:1006CC00142311F00C945B0371E0FF24EE248827B3
:1006DC00CBE0D2E0002709930883CDE0D2E00027DD
:1006EC00088301E051D160D103E455D15DD105E718
:1006FC0052D15AD102E74FD157D102E74CD154D144
:10070C0005E649D151D10EE646D14ED104E743D18D
:10071C004BD100E240D148D106E43DD145D10CE6A5
:10072C003AD142D10FE637D13FD10FE634D13CD18B
:10073C0002E731D139D10AE32ED136D100E22BD1E7
:10074C0033D10F2D10E3010F26D12ED100EC1CD18B
:10075C002BD10EE420D128D105E61DD125D108E7F7
:10076C001AD122D104E717D11FD100E214D11CD128
:10077C0006E411D119D10CE60ED116D10FE60BD12E
:10078C0013D10FE608D110D102E705D10DD10AE340
:10079C0002D10AD100E2FFD007D10E2D10E3010FD8
:1007AC00FAD002D10C941F025FEE33270C94E003B5
:1007BC000C94F9003430E1F350930B010FEF0A95D0
:1007CC00F1F7009109010F700F30B1F01FEF1A957E
:1007DC00000000000000D9F7009109010F700F30E4
:1007EC0059F041E02227243039F0102F142349F01E
:1007FC002395440F0C94F903550F539533950C9492
:10080C00E0033330B1F02330B1F0022F000F020FB0
:10081C00030F0395F2E0E0E0003021F00A953196E9
:10082C000C94120401E0008350930A0261E00C94D2
:10083C00F9000C94F900303021F0313059F10C945E
:10084C00F900EE2472E061E0C0E0D2E000270993E9
:10085C0009930993099309930993099309930993AC
:10086C000883CDE0D2E00027088350930A02152FAD
:10087C000AE291D099D00C94430410930B01000020
:10088C000000009109010F700F3011F00C9443041B
:10089C000C94FF00F2E0E0E001E0008350930A02C8
:1008AC0061E0A1CC0F930FB70F938F938F939F930E
:1008BC00CF93DF93803059F0C0910B02D0910C0292
:1008CC002196C4380EE1D00721F00C94A7040C94A7
:1008DC00AB0400910E02813031F08230A1F08430F3
:1008EC00D1F00C949904713011F00C9483040038FD
:1008FC0009F4001F001F0C949904013009F40795AA
:10090C0007950C9499040F3F19F40FEF0C9499046C
:10091C0003EC0C949904033C19F403EC0C94990427
:10092C000FEF0C94990400930E0208B9CBE0D2E0BF
:10093C00002709930883C0910D02C395C0930D0243
:10094C0004C0C0930B02D0930C02DF91CF919F9106
:10095C008F918F910F910FBF0F9118950F930FB728
:10096C000F93833011F00C94C504CBE0D2E0002738
:10097C0009930883CDE0D2E00027088384E00F912F
:10098C000FBF0F911895FFCF01BB1FD0169A1DD02A
:10099C0016981BD0089501BB179A17D0169A15D02C
:1009AC00169813D0179808950F93002700BB01BB1E
:1009BC00159A0BD0169A09D00FB1169807FDF9CFDE
:1009CC0015980FEF00BB0F9108958F939F939FE0A5
:1009DC008CE90197F1F79F918F910895F6DFF5DF80
:0809EC00F4DFF3DFF2DF0895F0
:00000001FF
